:100000000C945C000C9479000C9479000C947900A9
:100010000C9479000C9479000C9479000C9479007C
:100020000C9479000C9479000C9479000C9479006C
:100030000C9479000C9479000C9479000C9479005C
:100040000C946F010C9479000C9479000C94790055
:100050000C9479000C9479000C9479000C9479003C
:100060000C9479000C947900000000080002010053
:100070000003040700000000000000000000000072
:10008000250028002B0000000000240027002A0083
:10009000040404040404040402020202020203032E
:1000A0000303030301020408102040800102040836
:1000B000102001020408102011241FBECFEFD8E049
:1000C000DEBFCDBF11E0A0E0B1E0E4E6FAE002C09F
:1000D00005900D92A830B107D9F721E0A8E0B1E072
:1000E00001C01D92A833B207E1F70E94B9010C9438
:1000F00030050C94000090E0FC01E859FF4F24917A
:10010000FC01EC55FF4F3491FC01E057FF4FE491A7
:10011000EE23C9F0222339F0233001F1A8F4213075
:1001200019F1223029F1F0E0EE0FFF1FE458FF4FE4
:10013000A591B4918FB7F894EC91611126C03095D8
:100140003E233C938FBF08952730A9F02830C9F093
:10015000243049F7809180008F7D03C0809180001A
:100160008F7780938000DFCF84B58F7784BDDBCF1E
:1001700084B58F7DFBCF8091B0008F778093B000E6
:10018000D2CF8091B0008F7DF9CF3E2BDACF3FB731
:10019000F8948091090190910A01A0910B01B0910E
:1001A0000C0126B5A89B05C02F3F19F00196A11D93
:1001B000B11D3FBFBA2FA92F982F8827BC01CD01B1
:1001C000620F711D811D911D42E0660F771F881F10
:1001D000991F4A95D1F708958F929F92AF92BF923F
:1001E000CF92DF92EF92FF924B015C010E94C70019
:1001F0006B017C010E94C7006C197D098E099F0963
:10020000683E734081059105A8F321E0821A9108A8
:10021000A108B10888EEC80E83E0D81EE11CF11CCD
:1002200081149104A104B10429F7FF90EF90DF90AD
:10023000CF90BF90AF909F908F900895CF93C82F8D
:1002400061E00E947B008BE99FE00197F1F760E09D
:100250008C2FCF910C947B00CF93C82F61E00E942C
:100260007B008BE39FE10197F1F760E08C2FCF914A
:100270000C947B00CF93DF93D82FC62FCA0164E084
:1002800070E00E9408052230310540F0F901EE0FC0
:10029000FF1FEE0FFF1F35973197F1F78130910562
:1002A00091F034F461E0892B49F0DF91CF9108950A
:1002B0008230910591F060E00397B9F78D2F0E948D
:1002C0007B0061E005C061E08D2F0E947B0060E053
:1002D0008C2FDF91CF910C947B0060E0F5CF1F92C3
:1002E0000F920FB60F9211242F933F938F939F93EA
:1002F000AF93BF9380910D0190910E01A0910F01DA
:10030000B09110013091080123E0230F2D3758F5EB
:100310000196A11DB11D2093080180930D019093BA
:100320000E01A0930F01B0931001809109019091EB
:100330000A01A0910B01B0910C010196A11DB11D04
:100340008093090190930A01A0930B01B0930C01D3
:10035000BF91AF919F918F913F912F910F900FBEC1
:100360000F901F90189526E8230F0296A11DB11D2E
:10037000D2CF789484B5826084BD84B5816084BD19
:1003800085B5826085BD85B5816085BD80916E0033
:10039000816080936E001092810080918100826064
:1003A00080938100809181008160809381008091A1
:1003B00080008160809380008091B1008460809390
:1003C000B1008091B00081608093B00080917A008C
:1003D000846080937A0080917A00826080937A00B2
:1003E00080917A00816080937A0080917A008068A1
:1003F00080937A001092C10030E020E0F901EC55C2
:10040000FF4F4491F901E057FF4F8491882399F001
:1004100090E0880F991FFC01EA57FF4FA591B49116
:10042000FC01E458FF4F859194918FB7F894EC91BB
:10043000E42BEC938FBF2F5F3F4F2B303105F1F64C
:1004400082E090E00E941E0183E090E00E941E0185
:1004500084E090E00E941E0185E090E00E941E0171
:1004600064EF71E080E090E00E94EC003BE0232E1E
:1004700034EF332EC1E040E9842E99249394A12CCB
:10048000B12C50E2452E53E0552E612C712C8FB7C4
:10049000F894C0900D01D0900E01E0900F01F09003
:1004A00010018FBFC0923401D0923501E092360125
:1004B000F092370180910701882309F432C18091BD
:1004C00033018823A9F0009131011091320120916C
:1004D000050130910601A80161E070E090E080E044
:1004E0000E943A010F5F1F4F1093320100933101B8
:1004F000809130018823D1F020912C0130912D0181
:1005000080912E0190912F01019690932F0180935D
:100510002E018034910551F42F5F3F4F30932D0110
:1005200020932C0110922F0110922E0180912B010B
:1005300081111CC04092270150922801609229012C
:1005400070922A0180911101811118C182E090E01E
:100550000E942C01C093110110920001C09215015C
:10056000D0921601E0921701F092180100912C012F
:1005700010912D010530110511F580912601811191
:1005800022C0109230018092270190922801A092FF
:100590002901B0922A018091120181111AC183E0D0
:1005A00090E00E942C01C093120110920101C092B0
:1005B0001501D0921601E0921701F0921801809176
:1005C0002601882399F180912501811134C0809101
:1005D000230190912401A801481B590B4430510577
:1005E00009F09FC0109230011092330184EF91E026
:1005F000A0E0B0E08093270190932801A093290107
:10060000B0932A0180911301811110C184E090E020
:100610000E942C01C093130110920201C092150197
:10062000D0921601E0921701F092180180912501F5
:10063000882309F476C080912201811172C08091D3
:10064000230190912401A801481B590B4A30510500
:10065000F9F41092300110923301809105019091CC
:100660000601880F991F909306018093050110934E
:10067000240100932301C093210180911F019091D7
:10068000200101969093200180931F01C0931E01C9
:10069000809121018823E1F0809227019092280126
:1006A000A0922901B0922A0180911D018111EDC013
:1006B00085E090E00E942C01C0931D01109204017E
:1006C000C0921501D0921601E0921701F092180124
:1006D0008091230190912401A801481B590B4430BB
:1006E0005105F9F480911E018823D9F0109233014D
:1006F00010923001109324010093230180911F0177
:10070000909120018330910509F4EAC001969093FD
:10071000200180931F01C093210110921D01C093FD
:10072000040180911C01882309F414C100912E0159
:1007300010912F0180910301882309F42CC1013409
:1007400011050CF0D8C0E0901A01F0901B0124E0D4
:100750003DE3A70168E070E087E090E00E943A0185
:100760005FEFE51AF50AF0921B01E0921A010F5FA4
:100770001F4F10932F0100932E01ECC080910001B8
:100780008111F4CE8091150190911601A09117016D
:10079000B0911801A7019601281B390B4A0B5B0B7E
:1007A000DA01C90180329340A105B10508F4DECE1B
:1007B00082E090E00E941E01C0930001C0932B01D3
:1007C000C0933301C093300110922F0110922E017B
:1007D000CDCE80910101811129CF80911501909199
:1007E0001601A0911701B0911801A7019601281BCD
:1007F000390B4A0B5B0BDA01C90180399140A10525
:10080000B10508F413CFC093300110922F0110925C
:100810002E01109324010093230183E090E00E94B5
:100820001E01C0930101C0932601C9CE809102012F
:10083000811177CF8091150190911601A091170138
:10084000B0911801A7019601281B390B4A0B5B0BCD
:10085000DA01C901843F9140A105B10508F461CFD7
:1008600084E090E00E941E01C0930201C093250124
:10087000C0933301C093300110922F0110922E01CA
:100880001093240100932301D1CE809104018111A2
:100890001FCF8091150190911601A0911701B09181
:1008A0001801A7019601281B390B4A0B5B0BDA01D3
:1008B000C90180399140A105B10508F409CF85E04F
:1008C00090E00E941E01C0930401C0933301C093C5
:1008D000300110922F0110922E0110922101F8CEBA
:1008E000C093220110920701C0931C0110922F01A6
:1008F00010922E0116CF8091190181110EC0C09265
:100900001501D0921601E0921701F092180161E0F2
:1009100086E00E947B00C09319018091150190919F
:100920001601A0911701B0911801C81AD90AEA0A54
:10093000FB0A88EEC81683E0D806E104F10450F003
:1009400060E086E00E947B0010922F0110922E0141
:100950001092030180911401882309F44EC080E4B1
:10096000E82EF12C0FEF1FEF0F5F1F4F03701127C1
:10097000C1010197F1F70230110561F10330110552
:1009800009F443C061E089E00130110529F10E94BA
:100990007B0061E024C0013411058CF4E0901A0161
:1009A000F0901B0124E03DE3A70168E070E087E0E0
:1009B00090E00E943A019FEFE91AF90AD4CE109212
:1009C0001C01C093140168EE73E080E090E00E9487
:1009D000EC00C0CF60E089E00E947B0060E08AE02C
:1009E0000E947B00A1E0EA1AF10809F0BDCF68EE91
:1009F00073E080E090E00E94EC0020E030E0232BE8
:100A000009F445CD0E94000042CD60E089E0BFCFEF
:100A100097FB072E16F4009407D077FD09D00E94AB
:100A20001C0507FC05D03EF4909581959F4F0895D5
:100A3000709561957F4F0895AA1BBB1B51E107C0BC
:100A4000AA1FBB1FA617B70710F0A61BB70B881F5E
:100A5000991F5A95A9F780959095BC01CD010895ED
:040A6000F894FFCF38
:080A640001010101011A060164
:107E0000112484B714BE81FFF0D085E080938100F7
:107E100082E08093C00088E18093C10086E0809377
:107E2000C20080E18093C4008EE0C9D0259A86E02C
:107E300020E33CEF91E0309385002093840096BBD3
:107E4000B09BFECF1D9AA8958150A9F7CC24DD24C4
:107E500088248394B5E0AB2EA1E19A2EF3E0BF2EE7
:107E6000A2D0813461F49FD0082FAFD0023811F036
:107E7000013811F484E001C083E08DD089C08234E0
:107E800011F484E103C0853419F485E0A6D080C0E4
:107E9000853579F488D0E82EFF2485D0082F10E0AE
:107EA000102F00270E291F29000F111F8ED06801E7
:107EB0006FC0863521F484E090D080E0DECF843638
:107EC00009F040C070D06FD0082F6DD080E0C81688
:107ED00080E7D80618F4F601B7BEE895C0E0D1E017
:107EE00062D089930C17E1F7F0E0CF16F0E7DF06D8
:107EF00018F0F601B7BEE89568D007B600FCFDCFD4
:107F0000A601A0E0B1E02C9130E011968C91119780
:107F100090E0982F8827822B932B1296FA010C0160
:107F200087BEE89511244E5F5F4FF1E0A038BF0790
:107F300051F7F601A7BEE89507B600FCFDCF97BE46
:107F4000E89526C08437B1F42ED02DD0F82E2BD052
:107F50003CD0F601EF2C8F010F5F1F4F84911BD097
:107F6000EA94F801C1F70894C11CD11CFA94CF0C13
:107F7000D11C0EC0853739F428D08EE10CD085E9AC
:107F80000AD08FE07ACF813511F488E018D01DD067
:107F900080E101D065CF982F8091C00085FFFCCF94
:107FA0009093C60008958091C00087FFFCCF809118
:107FB000C00084FD01C0A8958091C6000895E0E648
:107FC000F0E098E1908380830895EDDF803219F02E
:107FD00088E0F5DFFFCF84E1DECF1F93182FE3DFCA
:107FE0001150E9F7F2DF1F91089580E0E8DFEE27F6
:047FF000FF270994CA
:027FFE00040479
:0400000300007E007B
:00000001FF
