:100000000C945C000C9479000C9479000C947900A9
:100010000C9479000C9479000C9479000C9479007C
:100020000C9479000C9479000C9479000C9479006C
:100030000C9479000C9479000C9479000C9479005C
:100040000C943B010C9479000C9479000C94790089
:100050000C9479000C9479000C9479000C9479003C
:100060000C9479000C947900000000080002010053
:100070000003040700000000000000000000000072
:10008000250028002B0000000000240027002A0083
:10009000040404040404040402020202020203032E
:1000A0000303030301020408102040800102040836
:1000B000102001020408102011241FBECFEFD8E049
:1000C000DEBFCDBF11E0A0E0B1E0E0ECF8E002C09F
:1000D00005900D92A830B107D9F721E0A8E0B1E072
:1000E00001C01D92A333B207E1F70E9485010C9471
:1000F0005E040C94000090E0FC01E859FF4F24914D
:10010000FC01EC55FF4F3491FC01E057FF4FE491A7
:10011000EE23C9F0222339F0233001F1A8F4213075
:1001200019F1223029F1F0E0EE0FFF1FE458FF4FE4
:10013000A591B4918FB7F894EC91611126C03095D8
:100140003E233C938FBF08952730A9F02830C9F093
:10015000243049F7809180008F7D03C0809180001A
:100160008F7780938000DFCF84B58F7784BDDBCF1E
:1001700084B58F7DFBCF8091B0008F778093B000E6
:10018000D2CF8091B0008F7DF9CF3E2BDACF3FB731
:10019000F8948091090190910A01A0910B01B0910E
:1001A0000C0126B5A89B05C02F3F19F00196A11D93
:1001B000B11D3FBFBA2FA92F982F8827BC01CD01B1
:1001C000620F711D811D911D42E0660F771F881F10
:1001D000991F4A95D1F708958F929F92AF92BF923F
:1001E000CF92DF92EF92FF926B017C010E94C700D9
:1001F0004B015C01C114D104E104F104B9F00E9487
:10020000C700681979098A099B09683E734081050E
:10021000910580F321E0C21AD108E108F10888EEC7
:10022000880E83E0981EA11CB11CE4CFFF90EF90D4
:10023000DF90CF90BF90AF909F908F900895CF9315
:10024000C82F61E00E947B008BE99FE00197F1F7E6
:1002500060E08C2FCF910C947B00CF93C82F61E08E
:100260000E947B008BE39FE10197F1F760E08C2F08
:10027000CF910C947B001F920F920FB60F92112416
:100280002F933F938F939F93AF93BF9380910D01D3
:1002900090910E01A0910F01B091100130910801D1
:1002A00023E0230F2D3758F50196A11DB11D209392
:1002B000080180930D0190930E01A0930F01B0935C
:1002C00010018091090190910A01A0910B01B09158
:1002D0000C010196A11DB11D8093090190930A01A3
:1002E000A0930B01B0930C01BF91AF919F918F919F
:1002F0003F912F910F900FBE0F901F90189526E8F9
:10030000230F0296A11DB11DD2CF789484B58260CF
:1003100084BD84B5816084BD85B5826085BD85B5A9
:10032000816085BD80916E00816080936E00109227
:1003300081008091810082608093810080918100A2
:100340008160809381008091800081608093800033
:100350008091B10084608093B1008091B000816091
:100360008093B00080917A00846080937A008091BD
:100370007A00826080937A0080917A008160809315
:100380007A0080917A00806880937A001092C10090
:1003900030E020E0F901EC55FF4F4491F901E057BE
:1003A000FF4F8491882399F090E0880F991FFC01FA
:1003B000EA57FF4FA591B491FC01E458FF4F859196
:1003C00094918FB7F894EC91E42BEC938FBF2F5F4F
:1003D0003F4F26303105F1F682E090E00E941F0188
:1003E00083E090E00E941F0184E090E00E941F01E2
:1003F00085E090E00E941F0164EF71E080E090E0F2
:100400000E94EC0011E080E9882E99249394A12C9D
:10041000B12C92E0292E312C20E2422E23E0522EE4
:10042000612C712C8FB7F894C0900D01D0900E0103
:10043000E0900F01F09010018FBFC0922F01D09279
:100440003001E0923101F09232018091060188235F
:1004500009F438C180912E018823D1F020912A011E
:1004600030912B0180912C0190912D010196909358
:100470002D0180932C018436910551F42F5F3F4F5D
:1004800030932B0120932A0110922D0110922C0100
:1004900080912901882311F1C0912701D091280171
:1004A0006091040170910501072E000C880B990BD7
:1004B0000E94EC00CE0164E070E00E9436048130BE
:1004C000910509F413C10CF005C161E0892B09F411
:1004D00008C12196D0932801C0932701809126015D
:1004E00081111CC04092220150922301609224018C
:1004F0007092250180911701811103C182E090E083
:100500000E942D011093170110920201C092130155
:10051000D0921401E0921501F0921601C0912A01C7
:10052000D0912B01C530D10511F5809121018111A8
:1005300022C010922E018092220190922301A0925B
:100540002401B092250180911201811105C183E03F
:1005500090E00E942D011093120110920101C092AF
:100560001301D0921401E0921501F09216018091CE
:100570002101882399F180912001811134C080915B
:100580001E0190911F01AE01481B590B44305105CB
:1005900009F098C010922E011092290184EF91E089
:1005A000A0E0B0E08093220190932301A093240166
:1005B000B0932501809111018111FBC084E090E08E
:1005C0000E942D011093110110920001C09213019D
:1005D000D0921401E0921501F09216018091200151
:1005E000882309F46FC080911D0181116BC0809137
:1005F0001E0190911F01AE01481B590B4A30510555
:10060000C9F410922E011092290130920501209216
:100610000401D0931F01C0931E0110931C0180910F
:100620001A0190911B01019690931B0180931A016E
:100630001093190180911C018823E1F0809222011E
:1006400090922301A0922401B0922501809118017B
:100650008111DEC085E090E00E942D011093180109
:1006600010920301C0921301D0921401E09215017F
:10067000F092160180911E0190911F01DE01A81BCE
:10068000B90B1497F9F4809119018823D9F01092CD
:10069000290110922E01D0931F01C0931E01809159
:1006A0001A0190911B018330910509F4DAC001967B
:1006B00090931B0180931A0110931C011092180152
:1006C0001093030120E030E0232B09F4ABCE0E940D
:1006D0000000A8CE8230910591F060E0039709F008
:1006E000F8CE80E00E947B0061E005C061E080E020
:1006F0000E947B0060E081E00E947B00EACE60E027
:10070000F6CF80910201811109CF80911301909160
:100710001401A0911501B0911601A7019601281BA3
:10072000390B4A0B5B0BDA01C90180329340A105FA
:10073000B10508F4F3CE82E090E00E941F0110930F
:100740000201109326011093290110932E0110929B
:100750002D0110922C01E2CE8091010181113ECF3A
:100760008091130190911401A0911501B09116018F
:10077000A7019601281B390B4A0B5B0BDA01C90153
:1007800080399140A105B10508F428CF10932E01BE
:1007900010922D0110922C01D0931F01C0931E01C5
:1007A00083E090E00E941F0110930101109321014A
:1007B000DECE80910001811185CF8091130190914F
:1007C0001401A0911501B0911601A7019601281BF3
:1007D000390B4A0B5B0BDA01C901843F9140A1053B
:1007E000B10508F46FCF84E090E00E941F011093E0
:1007F0000001109320011093290110932E011092F3
:100800002D0110922C01D0931F01C0931E01E6CE42
:100810008091030181112ECF8091130190911401D9
:10082000A0911501B0911601C81AD90AEA0AFB0A6B
:1008300050E9C51651E0D506E104F10408F41ACFD9
:1008400085E090E00E941F0110930301109329019D
:1008500010932E0110922D0110922C0110921C0168
:1008600009CF10931D01109206012CCF97FB072E84
:1008700016F4009407D077FD09D00E944A0407FCC3
:1008800005D03EF4909581959F4F089570956195A0
:100890007F4F0895AA1BBB1B51E107C0AA1FBB1FB6
:1008A000A617B70710F0A61BB70B881F991F5A95FC
:1008B000A9F780959095BC01CD010895F894FFCFDC
:0808C00001010101010001002A
:107E0000112484B714BE81FFF0D085E080938100F7
:107E100082E08093C00088E18093C10086E0809377
:107E2000C20080E18093C4008EE0C9D0259A86E02C
:107E300020E33CEF91E0309385002093840096BBD3
:107E4000B09BFECF1D9AA8958150A9F7CC24DD24C4
:107E500088248394B5E0AB2EA1E19A2EF3E0BF2EE7
:107E6000A2D0813461F49FD0082FAFD0023811F036
:107E7000013811F484E001C083E08DD089C08234E0
:107E800011F484E103C0853419F485E0A6D080C0E4
:107E9000853579F488D0E82EFF2485D0082F10E0AE
:107EA000102F00270E291F29000F111F8ED06801E7
:107EB0006FC0863521F484E090D080E0DECF843638
:107EC00009F040C070D06FD0082F6DD080E0C81688
:107ED00080E7D80618F4F601B7BEE895C0E0D1E017
:107EE00062D089930C17E1F7F0E0CF16F0E7DF06D8
:107EF00018F0F601B7BEE89568D007B600FCFDCFD4
:107F0000A601A0E0B1E02C9130E011968C91119780
:107F100090E0982F8827822B932B1296FA010C0160
:107F200087BEE89511244E5F5F4FF1E0A038BF0790
:107F300051F7F601A7BEE89507B600FCFDCF97BE46
:107F4000E89526C08437B1F42ED02DD0F82E2BD052
:107F50003CD0F601EF2C8F010F5F1F4F84911BD097
:107F6000EA94F801C1F70894C11CD11CFA94CF0C13
:107F7000D11C0EC0853739F428D08EE10CD085E9AC
:107F80000AD08FE07ACF813511F488E018D01DD067
:107F900080E101D065CF982F8091C00085FFFCCF94
:107FA0009093C60008958091C00087FFFCCF809118
:107FB000C00084FD01C0A8958091C6000895E0E648
:107FC000F0E098E1908380830895EDDF803219F02E
:107FD00088E0F5DFFFCF84E1DECF1F93182FE3DFCA
:107FE0001150E9F7F2DF1F91089580E0E8DFEE27F6
:047FF000FF270994CA
:027FFE00040479
:0400000300007E007B
:00000001FF
