:100000000C945C000C9479000C9479000C947900A9
:100010000C9479000C9479000C9479000C9479007C
:100020000C9479000C9479000C9479000C9479006C
:100030000C9479000C9479000C9479000C9479005C
:100040000C943B010C9479000C9479000C94790089
:100050000C9479000C9479000C9479000C9479003C
:100060000C9479000C947900000000080002010053
:100070000003040700000000000000000000000072
:10008000250028002B0000000000240027002A0083
:10009000040404040404040402020202020203032E
:1000A0000303030301020408102040800102040836
:1000B000102001020408102011241FBECFEFD8E049
:1000C000DEBFCDBF11E0A0E0B1E0E6EAF8E002C09B
:1000D00005900D92A630B107D9F721E0A6E0B1E076
:1000E00001C01D92A133B207E1F70E9485010C9473
:1000F00051040C94000090E0FC01E859FF4F24915A
:10010000FC01EC55FF4F3491FC01E057FF4FE491A7
:10011000EE23C9F0222339F0233001F1A8F4213075
:1001200019F1223029F1F0E0EE0FFF1FE458FF4FE4
:10013000A591B4918FB7F894EC91611126C03095D8
:100140003E233C938FBF08952730A9F02830C9F093
:10015000243049F7809180008F7D03C0809180001A
:100160008F7780938000DFCF84B58F7784BDDBCF1E
:1001700084B58F7DFBCF8091B0008F778093B000E6
:10018000D2CF8091B0008F7DF9CF3E2BDACF3FB731
:10019000F8948091070190910801A0910901B09114
:1001A0000A0126B5A89B05C02F3F19F00196A11D95
:1001B000B11D3FBFBA2FA92F982F8827BC01CD01B1
:1001C000620F711D811D911D42E0660F771F881F10
:1001D000991F4A95D1F708958F929F92AF92BF923F
:1001E000CF92DF92EF92FF926B017C010E94C700D9
:1001F0004B015C01C114D104E104F104B9F00E9487
:10020000C700681979098A099B09683E734081050E
:10021000910580F321E0C21AD108E108F10888EEC7
:10022000880E83E0981EA11CB11CE4CFFF90EF90D4
:10023000DF90CF90BF90AF909F908F900895CF9315
:10024000C82F61E00E947B008BE99FE00197F1F7E6
:1002500060E08C2FCF910C947B00CF93C82F61E08E
:100260000E947B008BE39FE10197F1F760E08C2F08
:10027000CF910C947B001F920F920FB60F92112416
:100280002F933F938F939F93AF93BF9380910B01D5
:1002900090910C01A0910D01B0910E0130910601D9
:1002A00023E0230F2D3758F50196A11DB11D209392
:1002B000060180930B0190930C01A0930D01B09364
:1002C0000E018091070190910801A0910901B09160
:1002D0000A010196A11DB11D8093070190930801A9
:1002E000A0930901B0930A01BF91AF919F918F91A3
:1002F0003F912F910F900FBE0F901F90189526E8F9
:10030000230F0296A11DB11DD2CF789484B58260CF
:1003100084BD84B5816084BD85B5826085BD85B5A9
:10032000816085BD80916E00816080936E00109227
:1003300081008091810082608093810080918100A2
:100340008160809381008091800081608093800033
:100350008091B10084608093B1008091B000816091
:100360008093B00080917A00846080937A008091BD
:100370007A00826080937A0080917A008160809315
:100380007A0080917A00806880937A001092C10090
:1003900030E020E0F901EC55FF4F4491F901E057BE
:1003A000FF4F8491882399F090E0880F991FFC01FA
:1003B000EA57FF4FA591B491FC01E458FF4F859196
:1003C00094918FB7F894EC91E42BEC938FBF2F5F4F
:1003D0003F4F26303105F1F682E090E00E941F0188
:1003E00083E090E00E941F0184E090E00E941F01E2
:1003F00085E090E00E941F0164EF71E080E090E0F2
:100400000E94EC0004E010E080E9882E9924939487
:10041000A12CB12C94EF492E55245394612C712CAE
:100420008FB7F894C0900B01D0900C01E0900D01B3
:10043000F0900E018FBFC0922D01D0922E01E0925C
:100440002F01F092300180912C018823C9F0809116
:100450002A0190912B01019690932B0180932A0100
:100460008436910569F480912801909129010196C3
:10047000909329018093280110922B0110922A0158
:1004800080912701882309F1C0912501D09126018F
:100490006091040170910501072E000C880B990BE7
:1004A0000E94EC00CE01B8010E9429048130910520
:1004B00009F41BC10CF00DC161E0892B09F410C1D6
:1004C0002196D0932601C0932501809124018111AA
:1004D00021C020E233E040E050E02093200130933F
:1004E0002101409322015093230180910F0181113A
:1004F00007C182E090E00E942D0181E080930F010E
:1005000010920001C0921201D0921301E0921401E6
:10051000F0921501C0912801D0912901C530D10573
:1005200019F580911F01811123C010922C01809236
:10053000200190922101A0922201B092230180918A
:100540001001811105C183E090E00E942D0181E03E
:100550008093100110920101C0921201D0921301F8
:10056000E0921401F092150180911F01882381F11E
:1005700080911E01811131C080911C0190911D015B
:10058000AE01481B590B4430510509F09AC0109236
:100590002C0110922701409220015092210160927B
:1005A000220170922301809111018111FCC084E02D
:1005B00090E00E942D0181E08093110110920201D0
:1005C000C0921201D0921301E0921401F092150131
:1005D00080911E01882309F474C080911B01811150
:1005E00070C080911C0190911D01AE01481B590BF8
:1005F0004A305105E1F410922C011092270182E05B
:1006000090E09093050180930401D0931D01C09365
:100610001C0121E020931A01809118019091190189
:1006200001969093190180931801209317018091EE
:100630001A018823E9F08092200190922101A09272
:100640002201B0922301809116018111D8C085E06A
:1006500090E00E942D0181E0809316011092030129
:10066000C0921201D0921301E0921401F092150190
:1006700080911C0190911D01DE01A81BB90B1497FC
:1006800001F5809117018823E1F010922701109263
:100690002C01D0931D01C0931C01809118019091F1
:1006A00019018330910509F4D0C001969093190186
:1006B0008093180181E080931A01109216018093B3
:1006C000030120E030E0232B09F4AACE0E940000B1
:1006D000A7CE8230910591F060E0039709F0F0CE4B
:1006E00080E00E947B0061E005C061E080E00E9444
:1006F0007B0060E081E00E947B00E2CE60E0F6CF0C
:1007000080910001811106CF809112019091130117
:10071000A0911401B0911501A7019601281B390B76
:100720004A0B5B0BDA01C90180329340A105B10588
:1007300008F4F0CE82E090E00E941F0181E08093F7
:100740000001809324018093270180932C01E2CE45
:100750008091010181113CCF809112019091130190
:10076000A0911401B0911501A7019601281B390B26
:100770004A0B5B0BDA01C90180399140A105B10533
:1007800008F426CF3324339430922C01D0931D01EA
:10079000C0931C0183E090E00E941F013092010190
:1007A00030921F01E1CE8091020181118ACF8091A8
:1007B000120190911301A0911401B0911501A701AC
:1007C0009601281B390B4A0B5B0BDA01C901843FE8
:1007D0009140A105B10508F474CF84E090E00E9437
:1007E0001F0181E08093020180931E018093270105
:1007F00080932C01D0931D01C0931C01E9CE809100
:100800000301811135CF8091120190911301A091C4
:100810001401B0911501C81AD90AEA0AFB0A50E975
:10082000C51651E0D506E104F10408F421CF85E0B6
:1008300090E00E941F0181E08093030180932701D3
:1008400080932C0110921A0113CF81E080931B0139
:1008500038CF97FB072E16F4009407D077FD09D008
:100860000E943D0407FC05D03EF4909581959F4F72
:100870000895709561957F4F0895AA1BBB1B51E1A8
:1008800007C0AA1FBB1FA617B70710F0A61BB70B00
:10089000881F991F5A95A9F780959095BC01CD01A5
:0608A0000895F894FFCF5B
:0608A60001010101010047
:00000001FF
