:100000000C945D000C9485000C9485000C94850084
:100010000C9485000C9485000C9485000C9485004C
:100020000C9485000C9485000C9485000C9485003C
:100030000C9485000C9485000C9485000C9485002C
:100040000C9491030C9485000C945F030C94390379
:100050000C9485000C9485000C9485000C9485000C
:100060000C9485000C94850000000008000201003B
:100070000003040700000000000000000000000072
:10008000250028002B0000000000240027002A0083
:10009000040404040404040402020202020203032E
:1000A0000303030301020408102040800102040836
:1000B0001020010204081020A70711241FBECFEF53
:1000C000D8E0DEBFCDBF11E0A0E0B1E0ECE4F0E1AC
:1000D00002C005900D92AE31B107D9F721E0AEE133
:1000E000B1E001C01D92AC3EB207E1F710E0CDE5F2
:1000F000D0E004C02197FE010E941E08CC35D10734
:10010000C9F70E94DB030C9424080C94000081E4DE
:1001100080937C0080917A00806480937A00809143
:100120007A0086FDFCCF8091780090917900089547
:10013000AF92BF92CF92DF92EF92FF920F931F93F5
:10014000CF93DF936C017B018B01040F151FEB0133
:100150005E01AE18BF08C017D10759F06991D601EA
:10016000ED91FC910190F081E02DC6010995892B5C
:1001700079F7C501DF91CF911F910F91FF90EF901B
:10018000DF90CF90BF90AF900895FC01538D448DC8
:10019000252F30E0842F90E0821B930B541710F032
:1001A000CF96089501970895FC01918D828D98173F
:1001B00061F0A28DAE0FBF2FB11D5D968C91928D17
:1001C0009F5F9F73928F90E008958FEF9FEF089548
:1001D000FC01918D828D981731F0828DE80FF11D11
:1001E000858D90E008958FEF9FEF0895FC01918D2C
:1001F000228D892F90E0805C9F4F821B91098F7325
:10020000992708958FE491E00E94F60021E0892B60
:1002100009F420E0822F089580E090E0892B29F0F6
:100220000E94020181110C9400000895FC01A48D2C
:10023000A80FB92FB11DA35ABF4F2C91848D90E008
:1002400001968F739927848FA689B7892C93A089EB
:10025000B1898C91837080648C93938D848D981375
:1002600006C00288F389E02D80818F7D8083089508
:10027000EF92FF920F931F93CF93DF93EC0181E0F6
:10028000888F9B8D8C8D98131AC0E889F98980819D
:1002900085FF15C09FB7F894EE89FF896083E889D0
:1002A000F98980818370806480839FBF81E090E0C2
:1002B000DF91CF911F910F91FF90EF900895F62E4F
:1002C0000B8D10E00F5F1F4F0F731127E02E8C8DE9
:1002D0008E110CC00FB607FCFACFE889F98980812E
:1002E00085FFF5CFCE010E941601F1CFEB8DEC0F0B
:1002F000FD2FF11DE35AFF4FF0829FB7F8940B8F4B
:10030000EA89FB8980818062CFCFCF93DF93EC01B4
:10031000888D8823B9F0AA89BB89E889F9898C91ED
:1003200085FD03C0808186FD0DC00FB607FCF7CFA9
:100330008C9185FFF2CF808185FFEDCFCE010E94A9
:100340001601E9CFDF91CF91089590E0FC01E859C3
:10035000FF4F2491FC01EC55FF4F3491FC01E05715
:10036000FF4FE491EE23C9F0222339F0233001F14D
:10037000A8F4213019F1223029F1F0E0EE0FFF1F2F
:10038000E458FF4FA591B4918FB7F894EC916111A7
:1003900026C030953E233C938FBF08952730A9F0A7
:1003A0002830C9F0243049F7809180008F7D03C048
:1003B000809180008F7780938000DFCF84B58F7726
:1003C00084BDDBCF84B58F7DFBCF8091B0008F776C
:1003D0008093B000D2CF8091B0008F7DF9CF3E2BBB
:1003E000DACF8230910538F0880F991F880F991F56
:1003F00005970197F1F708950F931F93CF93DF931C
:1004000000E410E0CFEFDFEF2196C370DD2784E03A
:100410009DE30E94F101C230D10561F0C330D105E6
:10042000C9F061E089E0C130D10531F00E94A50139
:1004300061E005C060E089E00E94A50160E08AE01B
:100440000E94A50101501109F9F6DF91CF911F918A
:100450000F91089560E089E0E9CF3FB7F89480916B
:100460001F0190912001A0912101B091220126B598
:10047000A89B05C02F3F19F00196A11DB11D3FBFDC
:10048000BA2FA92F982F8827BC01CD01620F711DAB
:10049000811D911D42E0660F771F881F991F4A95A5
:1004A000D1F708958F929F92AF92BF92CF92DF9231
:1004B000EF92FF924B015C010E942D026B017C01C7
:1004C0000E942D026C197D098E099F09683E7340B8
:1004D00081059105A8F321E0821A9108A108B108CD
:1004E00088EEC80E83E0D81EE11CF11C8114910433
:1004F000A104B10429F7FF90EF90DF90CF90BF9057
:10050000AF909F908F900895CF93C82F61E00E9485
:10051000A5018BE99FE00197F1F760E08C2FCF9167
:100520000C94A501CF93C82F61E00E94A5018BE335
:100530009FE10197F1F760E08C2FCF910C94A5011A
:100540000F931F93CF93DF93D82FC62F8A01C90132
:100550000E94F101C80164E070E00E94D40781307C
:100560009105A1F044F461E0892B59F0DF91CF911E
:100570001F910F91089582309105A1F060E00397DB
:10058000A9F78D2F0E94A50161E005C061E08D2FC4
:100590000E94A50160E08C2FDF91CF911F910F91F8
:1005A0000C94A50160E0F3CF8F929F92AF92BF921F
:1005B0000F931F93CF93DF93CDB7DEB7A1970FB6FD
:1005C000F894DEBF0FBECDBF19A2423008F44AE056
:1005D0008E010F5D1F4F842E912CB12CA12CA501F3
:1005E00094010E94E807E62FB901CA01EA3044F5F8
:1005F000E05DD801EE938D01232B242B252B79F779
:1006000090E080E0109769F0FD0101900020E9F78B
:100610003197AF014A1B5B0BBD018FE491E00E9453
:100620009800A1960FB6F894DEBF0FBECDBFDF9144
:10063000CF911F910F91BF90AF909F908F90089591
:10064000E95CD7CFCF93DF93BC01990F880B990B4F
:100650004AE00E94D402EC0142E050E06AE171E01D
:100660008FE491E00E9498008C0F9D1FDF91CF9145
:1006700008951F920F920FB60F9211242F933F935C
:100680004F935F936F937F938F939F93AF93BF939A
:10069000EF93FF938FE491E00E941601FF91EF9199
:1006A000BF91AF919F918F917F916F915F914F918A
:1006B0003F912F910F900FBE0F901F9018951F9292
:1006C0000F920FB60F9211242F938F939F93EF9356
:1006D000FF93E0915F01F09160018081E0916501FD
:1006E000F091660182FD1BC09081809168018F5F4F
:1006F0008F7320916901821741F0E0916801F0E069
:10070000E15BFE4F958F80936801FF91EF919F9180
:100710008F912F910F900FBE0F901F901895808191
:10072000F4CF1F920F920FB60F9211242F933F9385
:100730008F939F93AF93BF93809123019091240156
:10074000A0912501B091260130911E0123E0230FD5
:100750002D3758F50196A11DB11D20931E018093E0
:10076000230190932401A0932501B0932601809149
:100770001F0190912001A0912101B09122010196C9
:10078000A11DB11D80931F0190932001A093210111
:10079000B0932201BF91AF919F918F913F912F9183
:1007A0000F900FBE0F901F90189526E8230F02960A
:1007B000A11DB11DD2CF789484B5826084BD84B56B
:1007C000816084BD85B5826085BD85B5816085BD4C
:1007D00080916E00816080936E0010928100809104
:1007E000810082608093810080918100816080938C
:1007F0008100809180008160809380008091B100B1
:1008000084608093B1008091B00081608093B000DB
:1008100080917A00846080937A0080917A0082606F
:1008200080937A0080917A00816080937A00809131
:100830007A00806880937A001092C10030E020E056
:10084000F901EC55FF4F4491F901E057FF4F8491B6
:10085000882399F090E0880F991FFC01EA57FF4F19
:10086000A591B491FC01E458FF4F859194918FB705
:10087000F894EC91E42BEC938FBF2F5F3F4F2F3018
:100880003105F1F682E090E00E94840283E090E07E
:100890000E94840284E090E00E94840285E090E05F
:1008A0000E94840261E08EE00E94A50188EE93E040
:1008B0000E94F10160E08EE00E94A50164EF71E00A
:1008C00080E090E00E945202E0915F01F0916001AF
:1008D00082E08083E0915B01F0915C011082E09105
:1008E0005D01F0915E018FEC808310926701E091D1
:1008F0006301F091640186E08083E0916101F091F1
:100900006201808180618083E0916101F0916201E8
:10091000808188608083E0916101F0916201808133
:1009200080688083E0916101F091620180818F7D18
:10093000808330E0232E30E0332EC1E040E9842E66
:1009400099249394A12CB12C50E2452E53E0552EBE
:10095000612C712C8FB7F894C0902301D0902401A2
:10096000E0902501F09026018FBFC0924B01D092FC
:100970004C01E0924D01F0924E0180914A01882392
:1009800009F432C1809149018823A9F000914701FF
:10099000109148012091060130910701A80161E002
:1009A00070E090E080E00E94A0020F5F1F4F109364
:1009B000480100934701809146018823D1F020919E
:1009C000420130914301809144019091450101968B
:1009D00090934501809344018034910551F42F5F39
:1009E0003F4F3093430120934201109245011092F2
:1009F00044018091410181111CC040923D015092FF
:100A00003E0160923F017092400180912701811167
:100A100018C182E090E00E949202C09327011092D8
:100A20000001C0922B01D0922C01E0922D01F09296
:100A30002E0100914201109143010530110511F57D
:100A400080913C01811122C01092460180923D01AB
:100A500090923E01A0923F01B09240018091280106
:100A600081111AC183E090E00E949202C093280194
:100A700010920101C0922B01D0922C01E0922D0125
:100A8000F0922E0180913C01882399F180913B01E5
:100A9000811134C08091390190913A01A801481B1D
:100AA000590B4430510509F09FC010924601109235
:100AB000490184EF91E0A0E0B0E080933D01909384
:100AC0003E01A0933F01B093400180912901811123
:100AD00010C184E090E00E949202C093290110921C
:100AE0000201C0922B01D0922C01E0922D01F092D4
:100AF0002E0180913B01882309F476C08091380152
:100B0000811172C08091390190913A01A801481B6E
:100B1000590B4A305105F9F41092460110924901DF
:100B20008091060190910701880F991F909307010A
:100B30008093060110933A0100933901C093370165
:100B40008091350190913601019690933601809302
:100B50003501C0933401809137018823E1F0809200
:100B60003D0190923E01A0923F01B09240018091E0
:100B700033018111EDC085E090E00E949202C093A4
:100B8000330110920501C0922B01D0922C01E0920A
:100B90002D01F0922E018091390190913A01A80126
:100BA000481B590B44305105F9F4809134018823D6
:100BB000D9F0109249011092460110933A01009326
:100BC000390180913501909136018330910509F406
:100BD000EAC001969093360180933501C0933701A6
:100BE00010923301C093050180913201882309F4EA
:100BF00014C10091440110914501809104018823A2
:100C000009F430C1013411050CF0D8C0E090300176
:100C1000F090310124E03DE3A70168E070E087E057
:100C200090E00E94A0025FEFE51AF50AF092310110
:100C3000E09230010F5F1F4F109345010093440174
:100C4000ECC0809100018111F4CE80912B01909134
:100C50002C01A0912D01B0912E01A7019601281B16
:100C6000390B4A0B5B0BDA01C90180329340A105B5
:100C7000B10508F4DECE82E090E00E948402C093C9
:100C80000001C0934101C0934901C09346011092F5
:100C9000450110924401CDCE80910101811129CFEF
:100CA00080912B0190912C01A0912D01B0912E01EA
:100CB000A7019601281B390B4A0B5B0BDA01C9010E
:100CC00080399140A105B10508F413CFC0934601C6
:100CD000109245011092440110933A01009339019A
:100CE00083E090E00E948402C0930101C0933C0124
:100CF000C9CE80910201811177CF80912B01909113
:100D00002C01A0912D01B0912E01A7019601281B65
:100D1000390B4A0B5B0BDA01C901843F9140A105F5
:100D2000B10508F461CF84E090E00E948402C09392
:100D30000201C0933B01C0934901C0934601109248
:100D400045011092440110933A0100933901D1CE2C
:100D50008091050181111FCF80912B0190912C0171
:100D6000A0912D01B0912E01A7019601281B390BEE
:100D70004A0B5B0BDA01C90180399140A105B1052D
:100D800008F409CF85E090E00E948402C093050139
:100D9000C0934901C093460110924501109244014D
:100DA00010923701F8CEC093380110924A01C093D7
:100DB0003201109245011092440116CF80912F010B
:100DC00081110EC0C0922B01D0922C01E0922D0116
:100DD000F0922E0161E086E00E94A501C0932F01F0
:100DE00080912B0190912C01A0912D01B0912E01A9
:100DF000C81AD90AEA0AFB0A88EEC81683E0D806A0
:100E0000E104F10450F060E086E00E94A501109238
:100E1000450110924401109204018091030188233E
:100E2000A9F00E948700892B09F48EC080912A01C5
:100E300081110CC00E9487008A3DA2E09A0709F444
:100E400079C07CF5893A924009F479C021143104C3
:100E500009F480CD0E940201882309F47BCD0E9411
:100E6000000078CD013411058CF4E0903001F09051
:100E7000310124E03DE3A70168E070E087E090E005
:100E80000E94A0029FEFE91AF90AD0CE1092320117
:100E9000C093030168EE73E080E090E00E9452028C
:100EA000BCCF823133E09307F1F18435934071F682
:100EB000C0932A0161E08EE00E94A50188EE93E0D4
:100EC0000E94F10160E08EE00E94A50168EE73E0EF
:100ED00080E090E00E94520261E08BE00E94A50158
:100EE0000E94FC0160E08BE00E94A50161E08EE0C1
:100EF0000E94A50186EC94E00E94F10160E08EE082
:100F00000E94A50168EE73E080E090E00E9452022A
:100F100061E08CE00E94A5010E94FC0160E08CE091
:100F20000E94A50193CFC0932A0182E090E00E9425
:100F300022038CCFC0932A0183E090E0F8CFC093C6
:100F40002A0184E090E0F3CF10922A017FCFEFE4F2
:100F5000F1E01382128288EE93E0A0E0B0E0848397
:100F60009583A683B7838CE091E09183808385ECA1
:100F700090E09587848784EC90E09787868780EC63
:100F800090E0918B808B81EC90E0938B828B82EC54
:100F900090E0958B848B86EC90E0978B868B118EFE
:100FA000128E138E148E089597FB072E16F400945C
:100FB00007D077FD09D00E940A0807FC05D03EF44F
:100FC000909581959F4F0895709561957F4F0895F5
:100FD000A1E21A2EAA1BBB1BFD010DC0AA1FBB1F3D
:100FE000EE1FFF1FA217B307E407F50720F0A21BAF
:100FF000B30BE40BF50B661F771F881F991F1A941C
:1010000069F760957095809590959B01AC01BD0145
:10101000CF010895AA1BBB1B51E107C0AA1FBB1F2C
:10102000A617B70710F0A61BB70B881F991F5A9574
:10103000A9F780959095BC01CD010895EE0FFF1F93
:0C1040000590F491E02D0994F894FFCF86
:10104C000101010101011A0600000000380198009D
:0E105C00C5008501F600D400E8000D0A000072
:00000001FF
