:100000000C945C000C9479000C9479000C947900A9
:100010000C9479000C9479000C9479000C9479007C
:100020000C9479000C9479000C9479000C9479006C
:100030000C9479000C9479000C9479000C9479005C
:100040000C94FA000C9479000C9479000C947900CB
:100050000C9479000C9479000C9479000C9479003C
:100060000C9479000C947900000000080002010053
:100070000003040700000000000000000000000072
:10008000250028002B0000000000240027002A0083
:10009000040404040404040402020202020203032E
:1000A0000303030301020408102040800102040836
:1000B000102001020408102011241FBECFEFD8E049
:1000C000DEBFCDBF11E0A0E0B1E0E2E3F5E002C0A9
:1000D00005900D92A230B107D9F721E0A2E0B1E07E
:1000E00001C01D92AC31B207E1F70E9444010C94AB
:1000F00097020C94000090E0FC01E859FF4F249116
:10010000FC01EC55FF4F3491FC01E057FF4FE491A7
:10011000EE23C9F0222339F0233001F1A8F4213075
:1001200019F1223029F1F0E0EE0FFF1FE458FF4FE4
:10013000A591B4918FB7F894EC91611126C03095D8
:100140003E233C938FBF08952730A9F02830C9F093
:10015000243049F7809180008F7D03C0809180001A
:100160008F7780938000DFCF84B58F7784BDDBCF1E
:1001700084B58F7DFBCF8091B0008F778093B000E6
:10018000D2CF8091B0008F7DF9CF3E2BDACF3FB731
:10019000F8948091030190910401A0910501B09120
:1001A000060126B5A89B05C02F3F19F00196A11D99
:1001B000B11D3FBFBA2FA92F982F8827BC01CD01B1
:1001C000620F711D811D911D42E0660F771F881F10
:1001D000991F4A95D1F70895CF93C82F61E00E94E7
:1001E0007B008BE99FE00197F1F760E08C2FCF91C6
:1001F0000C947B001F920F920FB60F9211242F9335
:100200003F938F939F93AF93BF93809107019091FA
:100210000801A0910901B0910A013091020123E087
:10022000230F2D3758F50196A11DB11D2093020112
:100230008093070190930801A0930901B0930A01EC
:100240008091030190910401A0910501B0910601F4
:100250000196A11DB11D8093030190930401A09309
:100260000501B0930601BF91AF919F918F913F918E
:100270002F910F900FBE0F901F90189526E8230F17
:100280000296A11DB11DD2CF789484B5826084BD41
:1002900084B5816084BD85B5826085BD85B581608A
:1002A00085BD80916E00816080936E001092810008
:1002B00080918100826080938100809181008160C3
:1002C0008093810080918000816080938000809184
:1002D000B10084608093B1008091B0008160809310
:1002E000B00080917A00846080937A0080917A00D7
:1002F000826080937A0080917A00816080937A0096
:1003000080917A00806880937A001092C10030E07A
:1003100020E0F901EC55FF4F4491F901E057FF4F00
:100320008491882399F090E0880F991FFC01EA5787
:10033000FF4FA591B491FC01E458FF4F8591949132
:100340008FB7F894EC91E42BEC938FBF2F5F3F4F66
:1003500026303105F1F682E090E00E94EC0083E067
:1003600090E00E94EC0084E090E00E94EC0085E0C8
:1003700090E00E94EC008BE3482E8FE1582E94E031
:10038000692E712C20E2C22E23E0D22EE12CF12C1A
:10039000332433948FB7F89480900701909008012C
:1003A000A0900901B0900A018FBF8092180190922D
:1003B0001901A0921A01B0921B01809117018111BD
:1003C00023C0C0921301D0921401E0921501F09263
:1003D000160180910F01811149C061E082E00E9405
:1003E0007B00C2010197F1F760E082E00E947B0090
:1003F00030920F011092000180920B0190920C013B
:10040000A0920D01B0920E0180911201882331F16A
:100410000091100110911101C801B3010E946F02F7
:10042000EC010E94C7004B015C010E94C7006819E3
:1004300079098A099B09683E734081059105A8F3F3
:10044000C130D10509F440C0A4F561E0CD2BB9F16C
:100450000F5F1F4F109311010093100180E090E097
:10046000892B09F497CF0E94000094CF809100015E
:100470008111CACF80910B0190910C01A0910D01C7
:10048000B0910E01881A990AAA0ABB0A20E28216C4
:1004900023E09206A104B10408F4B6CF82E090E014
:1004A0000E94EC003092000130921701309212014C
:1004B000ABCFC230D10589F060E0239749F680E0E8
:1004C0000E947B0061E005C061E080E00E947B004B
:1004D00060E081E00E947B00BBCF60E0F6CF97FB3D
:1004E000072E16F4009407D077FD09D00E948302EE
:1004F00007FC05D03EF4909581959F4F0895709527
:1005000061957F4F0895AA1BBB1B51E107C0AA1F2D
:10051000BB1FA617B70710F0A61BB70B881F991FA4
:100520005A95A9F780959095BC01CD010895F8944E
:02053000FFCFFB
:020532000100C6
:107E0000112484B714BE81FFF0D085E080938100F7
:107E100082E08093C00088E18093C10086E0809377
:107E2000C20080E18093C4008EE0C9D0259A86E02C
:107E300020E33CEF91E0309385002093840096BBD3
:107E4000B09BFECF1D9AA8958150A9F7CC24DD24C4
:107E500088248394B5E0AB2EA1E19A2EF3E0BF2EE7
:107E6000A2D0813461F49FD0082FAFD0023811F036
:107E7000013811F484E001C083E08DD089C08234E0
:107E800011F484E103C0853419F485E0A6D080C0E4
:107E9000853579F488D0E82EFF2485D0082F10E0AE
:107EA000102F00270E291F29000F111F8ED06801E7
:107EB0006FC0863521F484E090D080E0DECF843638
:107EC00009F040C070D06FD0082F6DD080E0C81688
:107ED00080E7D80618F4F601B7BEE895C0E0D1E017
:107EE00062D089930C17E1F7F0E0CF16F0E7DF06D8
:107EF00018F0F601B7BEE89568D007B600FCFDCFD4
:107F0000A601A0E0B1E02C9130E011968C91119780
:107F100090E0982F8827822B932B1296FA010C0160
:107F200087BEE89511244E5F5F4FF1E0A038BF0790
:107F300051F7F601A7BEE89507B600FCFDCF97BE46
:107F4000E89526C08437B1F42ED02DD0F82E2BD052
:107F50003CD0F601EF2C8F010F5F1F4F84911BD097
:107F6000EA94F801C1F70894C11CD11CFA94CF0C13
:107F7000D11C0EC0853739F428D08EE10CD085E9AC
:107F80000AD08FE07ACF813511F488E018D01DD067
:107F900080E101D065CF982F8091C00085FFFCCF94
:107FA0009093C60008958091C00087FFFCCF809118
:107FB000C00084FD01C0A8958091C6000895E0E648
:107FC000F0E098E1908380830895EDDF803219F02E
:107FD00088E0F5DFFFCF84E1DECF1F93182FE3DFCA
:107FE0001150E9F7F2DF1F91089580E0E8DFEE27F6
:047FF000FF270994CA
:027FFE00040479
:0400000300007E007B
:00000001FF
