:100000000C945C000C9479000C9479000C947900A9
:100010000C9479000C9479000C9479000C9479007C
:100020000C9479000C9479000C9479000C9479006C
:100030000C9479000C9479000C9479000C9479005C
:100040000C94EE010C9479000C9479000C947900D6
:100050000C9479000C9479000C9479000C9479003C
:100060000C9479000C947900000000080002010053
:100070000003040700000000000000000000000072
:10008000250028002B0000000000240027002A0083
:10009000040404040404040402020202020203032E
:1000A0000303030301020408102040800102040836
:1000B000102001020408102011241FBECFEFD8E049
:1000C000DEBFCDBF11E0A0E0B1E0E2E9F1E102C0A6
:1000D00005900D92A830B107D9F721E0A8E0B1E072
:1000E00001C01D92A933B207E1F70E9438020C94B7
:1000F000C7080C94000081E480937C0080917A0012
:10010000806480937A0080917A0086FDFCCF809194
:10011000780090917900089590E0FC01E859FF4F34
:100120002491FC01EC55FF4F3491FC01E057FF4F47
:10013000E491EE23C9F0222339F0233001F1A8F431
:10014000213019F1223029F1F0E0EE0FFF1FE458C1
:10015000FF4FA591B4918FB7F894EC91611126C02F
:1001600030953E233C938FBF08952730A9F0283067
:10017000C9F0243049F7809180008F7D03C08091C1
:1001800080008F7780938000DFCF84B58F7784BD28
:10019000DBCF84B58F7DFBCF8091B0008F778093CC
:1001A000B000D2CF8091B0008F7DF9CF3E2BDACF57
:1001B0008230910538F0880F991F880F991F059795
:1001C0000197F1F708950F931F93CF93DF938C015D
:1001D000CFEFDFEF2196C370DD2784E09DE30E941F
:1001E000D800C230D10561F0C330D105C9F060E05C
:1001F00089E0C130D10531F00E948C0060E005C07B
:1002000061E089E00E948C0061E08AE00E948C003D
:1002100001501109F9F6DF91CF911F910F910895C7
:1002200061E089E0E9CF3FB7F894809109019091AE
:100230000A01A0910B01B0910C0126B5A89B05C045
:100240002F3F19F00196A11DB11D3FBFBA2FA92F55
:10025000982F8827BC01CD01620F711D811D911D52
:1002600042E0660F771F881F991F4A95D1F70895BE
:100270008F929F92AF92BF92CF92DF92EF92FF92B6
:100280004B015C010E9413016B017C010E94130170
:100290006C197D098E099F09683E7340810591059F
:1002A000A8F321E0821A9108A108B10888EEC80ECF
:1002B00083E0D81EE11CF11C81149104A104B10457
:1002C00029F7FF90EF90DF90CF90BF90AF909F9075
:1002D0008F900895CF92DF92EF92FF92BC01990F19
:1002E000880B990B0E94A60720E030E044E353E41A
:1002F0000E94FC0620E030E04AE754E40E94320805
:1003000020E030E04AE754E40E9490060E946E0725
:100310006B0161E08EE00E948C00C6010E94D80053
:1003200060E08EE00E948C0080E29EE48C199D09C2
:10033000FF90EF90DF90CF900C94D800CF93C82F10
:1003400061E00E948C008BE99FE00197F1F760E08B
:100350008C2FCF910C948C00CF93C82F61E00E941A
:100360008C008BE39FE10197F1F760E08C2FCF9138
:100370000C948C000F931F93CF93DF93D82FC62F2D
:100380008A01C9010E94D800C80164E070E00E949F
:100390009F0881309105A1F044F460E0892B59F069
:1003A000DF91CF911F910F91089582309105A1F0B7
:1003B00061E00397A9F78D2F0E948C0060E005C0D3
:1003C00060E08D2F0E948C0061E08C2FDF91CF9137
:1003D0001F910F910C948C0061E0F3CF1F920F924C
:1003E0000FB60F9211242F933F938F939F93AF9348
:1003F000BF9380910D0190910E01A0910F01B091DA
:1004000010013091080123E0230F2D3758F5019694
:10041000A11DB11D2093080180930D0190930E0141
:10042000A0930F01B09310018091090190910A01EE
:10043000A0910B01B0910C010196A11DB11D8093FB
:10044000090190930A01A0930B01B0930C01BF9195
:10045000AF919F918F913F912F910F900FBE0F9071
:100460001F90189526E8230F0296A11DB11DD2CF2B
:10047000789484B5826084BD84B5816084BD85B57F
:10048000826085BD85B5816085BD80916E0081608B
:1004900080936E0010928100809181008260809331
:1004A0008100809181008160809381008091800033
:1004B0008160809380008091B10084608093B1005E
:1004C0008091B00081608093B00080917A00846058
:1004D00080937A0080917A00826080937A00809184
:1004E0007A00816080937A0080917A00806880939E
:1004F0007A001092C10030E020E0F901EC55FF4F86
:100500004491F901E057FF4F8491882399F090E0DE
:10051000880F991FFC01EA57FF4FA591B491FC0188
:10052000E458FF4F859194918FB7F894EC91E42BA8
:10053000EC938FBF2F5F3F4F2F303105F1F682E0F4
:1005400090E00E949E0183E090E00E949E0184E082
:1005500090E00E949E0185E090E00E949E0190E064
:1005600080E00E946A0164EF71E080E090E00E9408
:10057000380130E0232E30E0332EC1E040E9842EF4
:1005800099249394A12CB12C50E2452E53E0552E82
:10059000612C712C8FB7F894C0900D01D0900E0192
:1005A000E0900F01F09010018FBFC0923501D09202
:1005B0003601E0923701F0923801809107018823DB
:1005C00009F432C1809134018823A9F000913201ED
:1005D000109133012091050130910601A80161E0DD
:1005E00070E090E080E00E94BA010F5F1F4F10930F
:1005F000330100933201809131018823D1F02091A1
:100600002D0130912E0180912F01909130010196A2
:100610009093300180932F018034910551F42F5F26
:100620003F4F30932E0120932D01109230011092F4
:100630002F0180912C0181111CC040922801509201
:10064000290160922A0170922B0180911101811180
:1006500018C182E090E00E94AC01C0931101109299
:100660000001C0921601D0921701E0921801F09299
:10067000190100912D0110912E010530110511F580
:1006800080912701811122C01092310180922801AE
:1006900090922901A0922A01B0922B01809112011F
:1006A00081111AC183E090E00E94AC01C093120155
:1006B00010920101C0921601D0921701E092180128
:1006C000F092190180912701882399F180912601E8
:1006D000811134C08091240190912501A801481B0B
:1006E000590B4430510509F09FC01092310110920E
:1006F000340184EF91E0A0E0B0E080932801909372
:100700002901A0932A01B0932B018091130181113B
:1007100010C184E090E00E94AC01C09313011092DC
:100720000201C0921601D0921701E0921801F092D6
:10073000190180912601882309F476C08091230154
:10074000811172C08091240190912501A801481B5C
:10075000590B4A305105F9F41092310110923401CD
:100760008091050190910601880F991F90930601D1
:10077000809305011093250100932401C093220169
:100780008091200190912101019690932101809305
:100790002001C0931F01809122018823E1F0809203
:1007A000280190922901A0922A01B0922B018091F8
:1007B0001E018111EDC085E090E00E94AC01C09364
:1007C0001E0110920401C0921601D0921701E0920E
:1007D0001801F09219018091240190912501A8013E
:1007E000481B590B44305105F9F480911F018823AF
:1007F000D9F0109234011092310110932501009329
:10080000240180912001909121018330910509F408
:10081000EAC001969093210180932001C0932201A8
:1008200010921E01C093040180911D01882309F4D8
:1008300014C100912F011091300180910301882390
:1008400009F42BC1013411050CF0D8C0E0901B0154
:10085000F0901C0124E03DE3A70168E070E087E030
:1008600090E00E94BA015FEFE51AF50AF0921C01D0
:10087000E0921B010F5F1F4F1093300100932F0177
:10088000ECC0809100018111F4CE8091160190910D
:100890001701A0911801B0911901A7019601281B19
:1008A000390B4A0B5B0BDA01C90180329340A10579
:1008B000B10508F4DECE82E090E00E949E01C09374
:1008C0000001C0932C01C0933401C09331011092F8
:1008D000300110922F01CDCE80910101811129CFDD
:1008E0008091160190911701A0911801B091190102
:1008F000A7019601281B390B4A0B5B0BDA01C901D2
:1009000080399140A105B10508F413CFC09331019E
:100910001092300110922F011093250100932401B1
:1009200083E090E00E949E01C0930101C0932701E3
:10093000C9CE80910201811177CF809116019091EB
:100940001701A0911801B0911901A7019601281B68
:10095000390B4A0B5B0BDA01C901843F9140A105B9
:10096000B10508F461CF84E090E00E949E01C0933D
:100970000201C0932601C0933401C093310110924B
:10098000300110922F011093250100932401D1CE44
:100990008091040181111FCF809116019091170160
:1009A000A0911801B0911901A7019601281B390BDC
:1009B0004A0B5B0BDA01C90180399140A105B105F1
:1009C00008F409CF85E090E00E949E01C0930401E5
:1009D000C0933401C09331011092300110922F0165
:1009E00010922201F8CEC093230110920701C09308
:1009F0001D011092300110922F0116CF80911A0123
:100A000081110EC0C0921601D0921701E092180118
:100A1000F092190161E086E00E948C00C0931A01F7
:100A20008091160190911701A0911801B0911901C0
:100A3000C81AD90AEA0AFB0A88EEC81683E0D80663
:100A4000E104F10450F060E086E00E948C00109216
:100A5000300110922F01109203018091150188231B
:100A6000A9F00E947B00892B09F456C180911401E2
:100A700081110CC00E947B008A3DA2E09A0709F414
:100A8000A1C054F5893A924009F4DEC02114310422
:100A900009F480CD0E9400007DCD013411058CF455
:100AA000E0901B01F0901C0124E03DE3A70168E009
:100AB00070E087E090E00E94BA019FEFE91AF90A1E
:100AC000D5CE10921D01C093150168EE73E080E051
:100AD00090E00E943801C1CF823133E0930791F159
:100AE0008435934099F6C093140190E080E00E9411
:100AF0006A0168EE73E080E090E00E94380161E0F6
:100B00008BE00E948C0080E490E00E94E30060E0B3
:100B10008BE00E948C0088E290E00E946A0168EEFF
:100B200073E080E090E00E94380161E08CE00E9478
:100B30008C0080E490E00E94E30060E08CE00E9482
:100B40008C00A4CFC093140104E010E090E080E09A
:100B50000E946A0168EE73E080E090E00E94380134
:100B600061E08BE00E948C0088E090E00E94E3004E
:100B700060E08BE00E948C0068EE73E080E090E023
:100B80000E94380188E290E00E946A0168EE73E0FA
:100B900080E090E00E94380161E08CE00E948C00CF
:100BA00088E090E00E94E30060E08CE00E948C000E
:100BB00068EE73E080E090E00E9438010150110976
:100BC00029F664CFC093140180E590E00E946A0189
:100BD00068EE73E080E090E00E94380161E08CE014
:100BE0000E948C0068EE73E080E090E00E94380183
:100BF00060E08CE00E948C0090E080E00E946A013E
:100C000068EE73E080E090E00E94380100E110E0BF
:100C100061E08BE00E948C0068EE73E080E090E081
:100C20000E94380160E08BE00E948C0084E090E03C
:100C30000E94E30068EE73E080E090E00E943801DB
:100C40000150110929F722CFC093140180E590E0EB
:100C50000E946A0168EE73E080E090E00E94380133
:100C600061E08BE00E948C0068EE73E080E090E031
:100C70000E94380160E08BE00E948C008CE390E0E1
:100C80000E946A0168EE73E080E090E00E94380103
:100C900061E08BE00E948C0080E490E00E94E30021
:100CA00060E08BE00E948C0090E080E00E946A018E
:100CB00068EE73E080E090E00E94380101E010E00F
:100CC00061E000FD1DC08BE00E948C0068EE73E0C7
:100CD00080E090E00E94380160E08BE00E948C0090
:100CE00084E090E00E94E30068EE73E080E090E032
:100CF0000E9438010F5F1F4F0131110509F7C6CE61
:100D00008CE00E948C0068EE73E080E090E00E942E
:100D1000380160E08CE0E2CF10921401B7CE505859
:100D2000BB27AA270E94A7060C94F8070E94EA078F
:100D300038F00E94F10720F039F49F3F19F426F4AF
:100D40000C94E7070EF4E095E7FB0C94E107E92F1C
:100D50000E94090858F3BA176207730784079507BA
:100D600020F079F4A6F50C942B080EF4E0950B2EE8
:100D7000BA2FA02D0B01B90190010C01CA01A001ED
:100D80001124FF27591B99F0593F50F4503E68F148
:100D90001A16F040A22F232F342F4427585FF3CF89
:100DA000469537952795A795F0405395C9F77EF45A
:100DB0001F16BA0B620B730B840BBAF09150A1F0A3
:100DC000FF0FBB1F661F771F881FC2F70EC0BA0F29
:100DD000621F731F841F48F4879577956795B795B1
:100DE000F7959E3F08F0B0CF9395880F08F09927AC
:100DF000EE0F9795879508950E9410070C94F807B9
:100E00000E94F10758F00E94EA0740F029F45F3F82
:100E100029F00C94E10751110C942C080C94E7076D
:100E20000E94090868F39923B1F3552391F3951BA8
:100E3000550BBB27AA2762177307840738F09F5FFB
:100E40005F4F220F331F441FAA1FA9F335D00E2E68
:100E50003AF0E0E832D091505040E695001CCAF7D5
:100E60002BD0FE2F29D0660F771F881FBB1F261798
:100E700037074807AB07B0E809F0BB0B802DBF016F
:100E8000FF2793585F4F3AF09E3F510578F00C943E
:100E9000E1070C942C085F3FE4F3983ED4F3869569
:100EA00077956795B795F7959F5FC9F7880F911D5F
:100EB0009695879597F90895E1E0660F771F881F4B
:100EC000BB1F621773078407BA0720F0621B730BFE
:100ED000840BBA0BEE1F88F7E09508950E94750702
:100EE0006894B1110C942C0808950E94110888F0A0
:100EF0009F5798F0B92F9927B751B0F0E1F0660FDE
:100F0000771F881F991F1AF0BA95C9F714C0B1301E
:100F100091F00E942B08B1E008950C942B08672FE4
:100F2000782F8827B85F39F0B93FCCF3869577954D
:100F30006795B395D9F73EF4909580957095619536
:100F40007F4F8F4F9F4F0895E89409C097FB3EF461
:100F500090958095709561957F4F8F4F9F4F992306
:100F6000A9F0F92F96E9BB279395F6958795779584
:100F70006795B795F111F8CFFAF4BB0F11F460FF44
:100F80001BC06F5F7F4F8F4F9F4F16C0882311F09C
:100F900096E911C0772321F09EE8872F762F05C0B0
:100FA000662371F096E8862F70E060E02AF09A954B
:100FB000660F771F881FDAF7880F9695879597F940
:100FC000089597F99F6780E870E060E008959FEFCB
:100FD00080EC089500240A941616170618060906D0
:100FE000089500240A94121613061406050608959F
:100FF000092E0394000C11F4882352F0BB0F40F427
:10100000BF2B11F460FF04C06F5F7F4F8F4F9F4F66
:10101000089557FD9058440F551F59F05F3F71F0E8
:101020004795880F97FB991F61F09F3F79F087954F
:101030000895121613061406551FF2CF4695F1DFD8
:1010400008C0161617061806991FF1CF8695710568
:10105000610508940895E894BB2766277727CB019C
:1010600097F908950E9445080C94F8070E94EA0732
:1010700038F00E94F10720F0952311F00C94E1075D
:101080000C94E70711240C942C080E94090870F3B3
:10109000959FC1F3950F50E0551F629FF001729F1D
:1010A000BB27F00DB11D639FAA27F00DB11DAA1F2C
:1010B000649F6627B00DA11D661F829F2227B00D79
:1010C000A11D621F739FB00DA11D621F839FA00D04
:1010D000611D221F749F3327A00D611D231F849F54
:1010E000600D211D822F762F6A2F11249F575040AB
:1010F0009AF0F1F088234AF0EE0FFF1FBB1F661F26
:10110000771F881F91505040A9F79E3F510580F0EE
:101110000C94E1070C942C085F3FE4F3983ED4F361
:10112000869577956795B795F795E7959F5FC1F792
:10113000FE2B880F911D9695879597F9089597FB3B
:10114000072E16F4009407D077FD09D00E94B3084B
:1011500007FC05D03EF4909581959F4F08957095BA
:1011600061957F4F0895AA1BBB1B51E107C0AA1FC1
:10117000BB1FA617B70710F0A61BB70B881F991F38
:101180005A95A9F780959095BC01CD010895F894E2
:02119000FFCF8F
:0811920001010101011A06012F
:107E0000112484B714BE81FFF0D085E080938100F7
:107E100082E08093C00088E18093C10086E0809377
:107E2000C20080E18093C4008EE0C9D0259A86E02C
:107E300020E33CEF91E0309385002093840096BBD3
:107E4000B09BFECF1D9AA8958150A9F7CC24DD24C4
:107E500088248394B5E0AB2EA1E19A2EF3E0BF2EE7
:107E6000A2D0813461F49FD0082FAFD0023811F036
:107E7000013811F484E001C083E08DD089C08234E0
:107E800011F484E103C0853419F485E0A6D080C0E4
:107E9000853579F488D0E82EFF2485D0082F10E0AE
:107EA000102F00270E291F29000F111F8ED06801E7
:107EB0006FC0863521F484E090D080E0DECF843638
:107EC00009F040C070D06FD0082F6DD080E0C81688
:107ED00080E7D80618F4F601B7BEE895C0E0D1E017
:107EE00062D089930C17E1F7F0E0CF16F0E7DF06D8
:107EF00018F0F601B7BEE89568D007B600FCFDCFD4
:107F0000A601A0E0B1E02C9130E011968C91119780
:107F100090E0982F8827822B932B1296FA010C0160
:107F200087BEE89511244E5F5F4FF1E0A038BF0790
:107F300051F7F601A7BEE89507B600FCFDCF97BE46
:107F4000E89526C08437B1F42ED02DD0F82E2BD052
:107F50003CD0F601EF2C8F010F5F1F4F84911BD097
:107F6000EA94F801C1F70894C11CD11CFA94CF0C13
:107F7000D11C0EC0853739F428D08EE10CD085E9AC
:107F80000AD08FE07ACF813511F488E018D01DD067
:107F900080E101D065CF982F8091C00085FFFCCF94
:107FA0009093C60008958091C00087FFFCCF809118
:107FB000C00084FD01C0A8958091C6000895E0E648
:107FC000F0E098E1908380830895EDDF803219F02E
:107FD00088E0F5DFFFCF84E1DECF1F93182FE3DFCA
:107FE0001150E9F7F2DF1F91089580E0E8DFEE27F6
:047FF000FF270994CA
:027FFE00040479
:0400000300007E007B
:00000001FF
