:100000000C945C000C9479000C9479000C947900A9
:100010000C9479000C9479000C9479000C9479007C
:100020000C9479000C9479000C9479000C9479006C
:100030000C9479000C9479000C9479000C9479005C
:100040000C9472010C9479000C9479000C94790052
:100050000C9479000C9479000C9479000C9479003C
:100060000C9479000C947900000000080002010053
:100070000003040700000000000000000000000072
:10008000250028002B0000000000240027002A0083
:10009000040404040404040402020202020203032E
:1000A0000303030301020408102040800102040836
:1000B000102001020408102011241FBECFEFD8E049
:1000C000DEBFCDBF11E0A0E0B1E0EAEEF9E002C092
:1000D00005900D92A830B107D9F721E0A8E0B1E072
:1000E00001C01D92A733B207E1F70E94BC010C9436
:1000F000F3040C94000090E0FC01E859FF4F2491B8
:10010000FC01EC55FF4F3491FC01E057FF4FE491A7
:10011000EE23C9F0222339F0233001F1A8F4213075
:1001200019F1223029F1F0E0EE0FFF1FE458FF4FE4
:10013000A591B4918FB7F894EC91611126C03095D8
:100140003E233C938FBF08952730A9F02830C9F093
:10015000243049F7809180008F7D03C0809180001A
:100160008F7780938000DFCF84B58F7784BDDBCF1E
:1001700084B58F7DFBCF8091B0008F778093B000E6
:10018000D2CF8091B0008F7DF9CF3E2BDACF3FB731
:10019000F8948091090190910A01A0910B01B0910E
:1001A0000C0126B5A89B05C02F3F19F00196A11D93
:1001B000B11D3FBFBA2FA92F982F8827BC01CD01B1
:1001C000620F711D811D911D42E0660F771F881F10
:1001D000991F4A95D1F708958F929F92AF92BF923F
:1001E000CF92DF92EF92FF926B017C010E94C700D9
:1001F0004B015C01C114D104E104F104B9F00E9487
:10020000C700681979098A099B09683E734081050E
:10021000910580F321E0C21AD108E108F10888EEC7
:10022000880E83E0981EA11CB11CE4CFFF90EF90D4
:10023000DF90CF90BF90AF909F908F900895CF9315
:10024000C82F61E00E947B008BE99FE00197F1F7E6
:1002500060E08C2FCF910C947B00CF93C82F61E08E
:100260000E947B008BE39FE10197F1F760E08C2F08
:10027000CF910C947B000F931F93CF93DF93D82FD4
:10028000C62F8A01B901330F880B990B0E94EC002D
:10029000C80164E070E00E94CB0481309105A1F0B8
:1002A00044F461E0892B59F0DF91CF911F910F91B8
:1002B000089582309105A1F060E00397A9F78D2F92
:1002C0000E947B0061E005C061E08D2F0E947B00F1
:1002D00060E08C2FDF91CF911F910F910C947B00E8
:1002E00060E0F3CF1F920F920FB60F9211242F935D
:1002F0003F938F939F93AF93BF9380910D01909104
:100300000E01A0910F01B09110013091080123E07E
:10031000230F2D3758F50196A11DB11D209308011B
:1003200080930D0190930E01A0930F01B0931001E3
:100330008091090190910A01A0910B01B0910C01EB
:100340000196A11DB11D8093090190930A01A0930C
:100350000B01B0930C01BF91AF919F918F913F9191
:100360002F910F900FBE0F901F90189526E8230F26
:100370000296A11DB11DD2CF789484B5826084BD50
:1003800084B5816084BD85B5826085BD85B5816099
:1003900085BD80916E00816080936E001092810017
:1003A00080918100826080938100809181008160D2
:1003B0008093810080918000816080938000809193
:1003C000B10084608093B1008091B000816080931F
:1003D000B00080917A00846080937A0080917A00E6
:1003E000826080937A0080917A00816080937A00A5
:1003F00080917A00806880937A001092C10030E08A
:1004000020E0F901EC55FF4F4491F901E057FF4F0F
:100410008491882399F090E0880F991FFC01EA5796
:10042000FF4FA591B491FC01E458FF4F8591949141
:100430008FB7F894EC91E42BEC938FBF2F5F3F4F75
:1004400029303105F1F682E090E00E941F0183E03F
:1004500090E00E941F0184E090E00E941F0185E06F
:1004600090E00E941F0164EF71E080E090E00E9444
:10047000EC00C1E080E9882E99249394A12CB12C42
:1004800092E0292E312C20E2422E23E0522E612CC4
:10049000712C8FB7F894C0900D01D0900E01E090B0
:1004A0000F01F09010018FBFC0923301D092340140
:1004B000E0923501F092360180910701882309F41A
:1004C0002CC1809132018823D1F020912E013091EE
:1004D0002F0180913001909131010196909331016B
:1004E000809330018436910551F42F5F3F4F309354
:1004F0002F0120932E011092310110923001809132
:100500002D018823A9F000912B0110912C0120913D
:10051000050130910601A80161E070E090E080E003
:100520000E943B010F5F1F4F10932C0100932B0182
:1005300080912A0181111CC040922601509227010E
:10054000609228017092290180911101811112C1DC
:1005500082E090E00E942D01C093110110920001F1
:10056000C0921401D0921501E0921601F092170189
:1005700000912E0110912F010530110511F5809188
:100580002501811122C010923201809226019092A1
:100590002701A0922801B0922901809112018111B6
:1005A00014C183E090E00E942D01C09312011092CB
:1005B0000101C0921401D0921501E0921601F0924F
:1005C000170180912501882399F1809124018111DF
:1005D00034C08091220190912301A801481B590B3E
:1005E0004430510509F099C01092320110922D014A
:1005F00084EF91E0A0E0B0E0809326019093270182
:10060000A0932801B09329018091130181110AC19F
:1006100084E090E00E942D01C0931301109202012A
:10062000C0921401D0921501E0921601F0921701C8
:1006300080912401882309F470C0809121018111E7
:100640006CC08091220190912301A801481B590B95
:100650004A305105C9F41092320110922D013092A6
:100660000601209205011093230100932201C093FB
:10067000200180911E0190911F01019690931F010E
:1006800080931E01C0931D01809120018823E1F019
:100690008092260190922701A0922801B092290110
:1006A00080911C018111EDC085E090E00E942D0138
:1006B000C0931C0110920401C0921401D092150144
:1006C000E0921601F092170180912201909123018E
:1006D000A801481B590B44305105F9F480911D01C4
:1006E0008823D9F010922D0110923201109323012A
:1006F0000093220180911E0190911F01833091058A
:1007000009F4EAC0019690931F0180931E01C093E3
:10071000200110921C01C093040180911B018823C9
:1007200009F414C10091300110913101809103014D
:10073000882309F413C1053611050CF0D8C0E090E8
:100740001901F0901A012AE030E0A70168E070E09A
:1007500087E090E00E943B015FEFE51AF50AF09216
:100760001A01E09219010F5F1F4F1093310100939E
:100770003001ECC0809100018111FACE809114010A
:1007800090911501A0911601B0911701A701960152
:10079000281B390B4A0B5B0BDA01C90180329340ED
:1007A000A105B10508F4E4CE82E090E00E941F01AB
:1007B000C0930001C0932A01C0932D01C093320160
:1007C0001092310110923001D3CE8091010181113C
:1007D0002FCF8091140190911501A0911601B09135
:1007E0001701A7019601281B390B4A0B5B0BDA0195
:1007F000C90180399140A105B10508F419CFC09312
:1008000032011092310110923001109323010093B4
:10081000220183E090E00E941F01C0930101C09378
:100820002501CFCE80910201811177CF80911401F3
:1008300090911501A0911601B0911701A7019601A1
:10084000281B390B4A0B5B0BDA01C901843F91402D
:10085000A105B10508F461CF84E090E00E941F017A
:10086000C0930201C0932401C0932D01C0933201B3
:100870001092310110923001109323010093220154
:10088000D7CE8091040181111FCF809114019091E6
:100890001501A0911601B0911701A7019601281B1F
:1008A000390B4A0B5B0BDA01C90180399140A10574
:1008B000B10508F409CF85E090E00E941F01C093C4
:1008C0000401C0932D01C0933201109231011092A6
:1008D000300110922001F8CEC0932101109207013F
:1008E000C0931B01109231011092300116CF8091FC
:1008F000180181110EC0C0921401D0921501E0922E
:100900001601F092170161E086E00E947B00C0931F
:1009100018018091140190911501A0911601B091D8
:100920001701C81AD90AEA0AFB0A88EEC81683E03A
:10093000D806E104F10450F060E086E00E947B00FC
:10094000109231011092300110920301A0E0B0E04A
:10095000AB2B09F49ECD0E9400009BCD05361105FE
:100960008CF4E0901901F0901A012AE030E0A70120
:1009700068E070E087E090E00E943B019FEFE91A99
:10098000F90AEDCE10921B0168EE73E080E090E072
:100990000E94EC00DBCF97FB072E16F4009407D0E3
:1009A00077FD09D00E94DF0407FC05D03EF4909546
:1009B00081959F4F0895709561957F4F0895AA1B6B
:1009C000BB1B51E107C0AA1FBB1FA617B70710F03A
:1009D000A61BB70B881F991F5A95A9F7809590956C
:0A09E000BC01CD010895F894FFCF8B
:0809EA000101010101010001FE
:00000001FF
